:0600000002131902006B5F
:03000B0002006B85
:0300130002006B7D
:03001B0002006B75
:0300230002006B6D
:03002B0002006B65
:0300330002006B5D
:03003B0002006B55
:0300430002006B4D
:03004B0002006B45
:0300530002006B3D
:03005B0002006B35
:0300630002006B2D
:01006B003262
:0900800002006B0002006B00029B
:08008900006B0002006B000295
:08009100006B0002006B00028D
:08009900006B0002006B000285
:0800A100006B0002006B00027D
:0800A900006B0002006B000275
:0700B100006B0002006B0070
:0901000002006B0002006B00021A
:08010900006B0002006B000214
:08011100006B0002006B00020C
:08011900006B0002006B000204
:08012100006B0002006B0002FC
:08012900006B0002006B0002F4
:08013100006B0002006B0002EC
:08013900006B0002006B0002E4
:08014100006B0002006B0002DC
:08014900006B0002006B0002D4
:08015100006B0002006B0002CC
:08015900006B0002006B0002C4
:08016100006B0002006B0002BC
:08016900006B0002006B0002B4
:08017100006B0002006B0002AC
:07017900006B0002006B00A7
:02E1000012010A
:06E10200100100000040C6
:06E10800B40413860400BC
:04E10E000102030106
:0AE112000A061001FFFFFF400100A4
:07E11C0009022000010100CF
:0EE12300804B0904000002FFFFFF0207058188
:0BE13100024000000705020240000051
:0EE13C001201100100000040B404138604001C
:04E14A0001020301CA
:0AE14E000A061001FFFFFF40010068
:0EE1580009023C00010100804B090400000692
:0EE16600FFFFFF0207058102400000070502CF
:0EE174000240000007050302400000070504FA
:0EE182000240000007058502400000070586E8
:04E190000240000049
:01E194000486
:02E195009EE109
:02E19700A4E101
:02E19900AEE1F5
:02E19B00C2E1DF
:06E19E0006030000090465
:0AE1A4000A03420055005000450038
:0EE1AE0014035500530042002D00530054008E
:06E1BC0054005000300089
:0EE1C20012033000300030003000300030001A
:04E1D00030003000EB
:080180007800E84400600C79EE
:0C01880000901800E4F0A3D8FCD9FAD0D5
:0E01940083D082F6D8FDC082C083758200221F
:0101A200223A
:0201A300AA822E
:0601A5001201A2DAFB22A8
:0301AB0090FB5076
:0801AE00A3E582458370F922EC
:0401B600AA82AB83EB
:0801BA001201AB1ABAFF011B90
:0501C200EA4B70F4227D
:0801C70090E6A0E04401F022E3
:0E01CF00AA8274805AC423541FFB740F5A90E6
:0C01DD00E6834BF090E683E04420F02223
:0E01E90090E680E0440AF09000FA1201B69011
:0E01F700E65D74FFF090E65F74FFF05391EF49
:0802050090E680E054F7F022BE
:0A020D00AA82E52470047582052220
:0E02170090E678E0FB20E6F890E6787480F040
:0702250090E67974014AF034
:0E022C0090E678E0FA30E0F890E678E0FA30FC
:0D023A00E20B90E678E04440F0758201226E
:0E02470090E678E0FA530202BA000B90E678D7
:08025500E04440F07582022232
:0C025D007401B5240890E678E0FA442013
:01026900F0A4
:09026A0090E679E0F525AA22AB2B
:0302730023AC2495
:040276001CEC603BE1
:0E027A0090E678E0FD30E0F890E678E0FD30A8
:0D028800E20B90E678E04440F0758203221E
:0B029500BC010890E678E0FD4420F07A
:0E02A00090E679E0FD8A828B83F0A3AA82AB00
:0702AE00838A228B2380C12B
:0E02B50090E678E0FA30E0F890E678E0FA3073
:0D02C300E20B90E678E04440F075820422E2
:0A02D00090E678E04440F0AA22AB6B
:0C02DA002390E679E08A828B83F0758225
:0202E6000022F4
:0202E800AA82E8
:0E02EA0090E678E0FB20E6F890E6787480F06D
:0702F80090E67974FE5AF054
:0E02FF0090E678E0FA30E0F890E678E0FA3029
:0D030D00E20B90E678E04440F0758201229A
:0E031A0090E678E0FA530202BA000B90E67803
:08032800E04440F0758202225E
:05033000AA22AB23AC82
:0103350024A3
:0E033600EC60428A828B83E0FDA3AA82AB8337
:0603440090E679EDF01CCB
:0E034A0090E678E0FD30E0F890E678E0FD30D7
:0D035800E20B90E678E04440F0758203224D
:0E03650090E678E0FD530502BD00C690E678F4
:08037300E04440F07582042211
:0B037B0090E678E04440F0758200221C
:05038600AA82BA030089
:07038B004005EA249C50012B
:010392002248
:09039300740F5AFBBB0302800742
:07039C00740F5AFBBB0B4577
:0A03A300A2AF9200C2AFEA2400F5F9
:0C03AD0082E43400F5837402F07B0074DD
:0C03B900012AFCE43BFDEC2400F582ED81
:0A03C5003400F583E523FCF0740218
:0C03CF002AFAE43BFBEA2400F582EB3440
:0A03DB0000F583AA227B00EAF0A2DD
:0303E5000092AFD4
:0103E80022F2
:0803E900E582FA248350012291
:0603F100EA540360012242
:0A03F700A2AF9201C2AFEA2400F5A4
:0C04010082E43401F5837402F07B007487
:0C040D00012AFCE43BFDEC2400F582ED2C
:0A0419003401F583E523F074022A94
:0B042300FAE43BFBEA2400F582EB3416
:08042E0001F583AA22EAF0A205
:040436000192AF225E
:05043A00AA82BA800057
:07043F004005EA244B5001C7
:010446002293
:06044700EA5403600122EB
:0A044D00A2AF9202C2AFEA2480F5CC
:0C04570082E43400F5837402F07B007432
:0C046300012AFCE43BFDEC2480F582ED56
:0A046F003400F583E523F074022A3F
:0B047900FAE43BFBEA2480F582EB3440
:0804840000F583AA22EAF0A2B0
:04048C000292AF2207
:08049000C2E8C2EA7522007502
:06049800230175824312EE
:04049E00038675223A
:0304A2008075233F
:0C04A500007582531203860090E650E4BC
:0E04B100F00090E652E4F00090E654E4F00013
:0E04BF0090E656E4F00090E65174FFF00090D5
:0E04CD00E65374FFF00090E65574FFF00090C7
:0E04DB00E65774FFF00090E658E4F090E65902
:0E04E90074FFF090E65AE4F090E65B74FFF0CA
:0E04F70090E65CE4F090E65D74FFF090E65E47
:0E050500E4F090E65F74FFF00090E660E4F032
:0D0513000090E66174FFF090E662E4F09065
:0E052000E66374FFF090E665E4F090E6687420
:0A052E000BF05391AFD2E8D2EA229D
:0A053800AA82AB83C2AD8A228B2396
:0E05420075822B12038675CB6375CAC075C80F
:0405500004D2AD2202
:06131900750800750900D3
:0A05540090E680E0FA30E719750A1E
:03055E0000750B1A
:03056100E1750C35
:0305640012750D00
:03056700E1750E2D
:03056A001C750FEE
:03056D00E1751025
:03057000587511AA
:02057300E12283
:04057500750A3C7552
:030579000BE1751E
:03057C000C4E75AD
:03057F000DE17516
:030582000E58759B
:030585000FE1750E
:03058800101C75CF
:03058B0011E12259
:09058E005391EF75A100D2033274
:0C059700C021C0E0C0F0C082C083C002E0
:0E05A300C003C004C005C006C007C000C001F0
:0E05B100C0D075D0005391EF75A10012055413
:0E05BF00D0D0D001D000D007D006D005D00497
:0D05CD00D003D002D083D082D0F0D0E0D097
:0205DA002132CC
:0C05DC00C021C0E0C0F0C082C083C0029B
:0E05E800C003C004C005C006C007C000C001AB
:0E05F600C0D075D0005391EF75A100120554CE
:0E060400D0D0D001D000D007D006D005D00451
:0D061200D003D002D083D082D0F0D0E0D051
:02061F00213286
:050621001205547522D2
:030626008E7523AB
:08062900057582001203E9755A
:0306310022977598
:060634002305758210127F
:04063A0003E9752239
:03063E00DC752345
:0C064100057582141203E990E65C743128
:02064D00F02299
:0D064F00E582547FFA24F7500475820022E2
:07065C00BA010475820122BE
:08066300530201E4BA00010496
:03066B00F58222F3
:0E066E00AA82BA010C90E6A1E0FB7C008B8210
:03067C008C83224A
:0E067F00BA810C90E6A2E0FB7C008B828C839B
:01068D00224A
:0E068E0053027FEA700C90E6A0E0FB7C008B2C
:04069C00828C8322A7
:0E06A00090E6A3E0FB7C00EAC313FA7D00EABB
:0906AE002BFBED3C8B82F583224D
:0C06B700C20390E6B8E0FA530260BA00FB
:0306C3000280288A
:0506C600BA2002800DC6
:0506CB00BA4002800EA0
:0506D000BA6002800386
:0306D500020975A2
:0606D8001201C7020975C2
:0A06DE00120ADEE5826003020975CE
:0606E8001201C7020975B2
:0D06EE0090E6B8E0FA530280BA8002800363
:0306FB000208767C
:0B06FE0090E6B9E0FABA00030207EF33
:05070900BA0602803574
:05070E00BA080280089A
:05071300BA0A02801784
:0307180002087064
:0C071B0090E740E508F090E68AE4F090DA
:08072700E68B7401F002097574
:0C072F0090E740E509F090E68AE4F090C5
:08073B00E68B7401F002097560
:0A07430090E6BBE0FABA010280174D
:05074D00BA0202803831
:05075200BA030280590A
:05075700BA0602801B40
:05075C00BA0702803C19
:030761000207E9A3
:0A076400AA0AAB0B90E6B3EBF07BA2
:09076E000090E6B4EAF0020975FE
:0A077700AA0CAB0D90E6B3EBF07B8B
:090781000090E6B4EAF0020975EB
:0A078A00AA0EAB0F90E6B3EBF07B74
:090794000090E6B4EAF0020975D8
:0A079D00AA10AB1190E6B3EBF07B5D
:0907A7000090E6B4EAF0020975C5
:0E07B00090E6BAE0FA90E194E0FBC3EA9B40C9
:0707BE00061201C7020975D4
:0C07C50090E6BAE075F002A42495F582DD
:0B07D10074E135F0F583E0FAA3E0903E
:0D07DC00E6B3F07B0090E6B4EAF002097588
:0607E9001201C7020975B0
:0D07EF0090E6B8E0FA53021FBA0002800A3B
:0507FC00BA0102801BA0
:05080100BA0266802C24
:0E08060090E740E4F090E741F090E68AF09031
:08081400E68B7402F002097585
:0E081C0090E740E4F090E741F090E68AF0901B
:08082A00E68B7402F00209756F
:0E08320090E6BCE0F58212064FE5826025904C
:0E084000E6BCE0F58212066EE0FA530201906B
:0E084E00E740EAF090E741E4F090E68AF0908F
:08085C00E68B7402F00209753D
:060864001201C702097534
:06086A001201C70209752E
:060870001201C702097528
:0C08760090E6B9E0FA24F4500302097285
:07088200EA2A2A900889739D
:070889000209720208BF0220
:06089000093A02091B02F7
:0608960009720209720262
:06089C000972020972025C
:0608A20009720208AD021C
:0508A80009720208B610
:0908AD0090E6BAE0F508020975B5
:0908B60090E6BAE0F509020975AB
:0D08BF0090E6B8E0FA53021FBA000280056F
:0508CC00BA0247800A9A
:0A08D10090E6BAE01201C7020975B3
:0D08DB0090E6BAE0703090E6BCE0F58212C5
:0D08E800064FE582602390E6BCE0F5821229
:0E08F500066EAA82AB83E0FC5304FE8A828B5F
:0E09030083ECF090E6BCE0F5821201CF806438
:050911001201C7805F28
:050916001201C7805A28
:0E091B0090E6B8E0FA53021FBA004F90E6BA19
:07092900E0FABA01028005AB
:05093000BA0202804044
:050935001201C7803B28
:0E093A0090E6BAE0FA702C90E6BCE0F582126E
:0D094800064FE582601A90E6BCE0F58212D1
:0E095500066EAA82AB83E0FC4304018A828B0B
:0509630083ECF0800DA3
:050968001201C7800828
:05096D001201C7800328
:030972001201C7A8
:0809750090E6A0E04480F022AE
:02097D00AB834A
:0C097F00C3EB9523503FE0FCA3AB8313B7
:0E098B0092A5D2A6C2A61392A5D2A6C2A6130A
:0E09990092A5D2A6C2A61392A5D2A6C2A613FC
:0E09A70092A5D2A6C2A61392A5D2A6C2A613EE
:0E09B50092A5D2A6C2A61392A5D2A6C2A68073
:0109C300BB78
:0109C4002210
:0209C500AB8302
:0C09C700C3EB95235018E0F590A3AB8320
:0E09D300D2A6C2A6D2A6C2A6D2A6C2A6D2A6FE
:0409E100C2A680E248
:0109E50022EF
:08131F007512C07513E7E4F537
:0313270014F515A5
:0A09E600AA82AB83ACF07D007E0016
:0E09F000C3ED9480EE6480948050188A828B50
:0E09FE00838CF01212FDFF600C0ABA00010B90
:070A0C000DBD00E00E80DDCE
:050A13008D828E83229C
:0A0A1800AA82E5167004E5176002DB
:020A220080232F
:070A24008518828519838506
:0C0A2B001AF0C0021209E6AB82AC83D0C6
:0B0A370002E51BFD3395E0FEED2BF502
:050A420016EE3CF51763
:0D0A470090E6A2E0FB20E1F8BA0002801862
:090A5400851282851383EAF00586
:060A5D0012E4B5120205CF
:010A6300137F
:070A64000514E4B5140205BE
:010A6B001575
:050A6C00AA18AB19AC53
:050A71001A7D007E006B
:0A0A7600C3E5149440E51594005008
:0A0A800039C3ED9516EE95175030BE
:0A0A8A00AF12A8138A828B838CF050
:0E0A94001212FDF9A3AA82AB838F828883E938
:080AA200F00512E4B512020593
:010AAA001338
:070AAB000514E4B514020577
:010AB200152E
:070AB3000DBD00BF0E80BC69
:0A0ABA00E51B700C7440B51406E44F
:050AC400B515028001E0
:010AC900220A
:0A0ACA0000AA1490E68FEAF0E4F5AC
:040AD40014F515758B
:060AD80012C07513E722B5
:03132A0002133279
:0313450002132D63
:05132D001212F580FE24
:040ADE0075820022FB
:0E0AE20090E6007412F090E60174C3F00090EC
:0E0AF000E60B7401F00090E61074A0F0009088
:0E0AFE00E61174A0F00090E61274A2F00090D1
:0E0B0C00E61374A0F00090E61474E2F000907E
:0E0B1A00E61574E0F00090E6047480F00090A0
:0E0B2800E6047482F00090E6047484F00090FD
:0E0B3600E6047486F00090E6047488F00090E7
:0E0B4400E604E4F00090E618E4F00090E619F4
:0E0B5200E4F00090E61A740DF00090E61B74BB
:0E0B60000DF00090E670E4F00090E60274FEE6
:0E0B6E00F00090E60374FEF00090E609E4F05B
:0E0B7C000090E6247402F00090E625E4F000FC
:0E0B8A0090E6267402F00090E627E4F000905A
:0E0B9800E6497482F00090E6497482F0009005
:0E0BA600E6497482F00090E6497482F00090F7
:0E0BB400E6497404F00090E6497404F00090E5
:0E0BC200E6497404F00090E6497404F00090D7
:0E0BD000E6197415F00090E6917480F0009024
:0D0BDE00E6917480F00090E695E4F0009040
:0C0BEB00E695E4F00090E67A7401F02238
:090BF70090E6A3E0FA30E20122CD
:0E0C000090E690E0FB7A0090E691E0FC7D002B
:0C0C0E004202ED4203BA0004BB000122C8
:0A0C1A0090F000E0FCBC3102801BEA
:060C2400BC3203020DB614
:060C2A00BC3403020E259C
:060C3000BC3503020E7347
:060C3600BC3603020E4D66
:030C3C000212D7CA
:0E0C3F0090F001E0FC90F002E024D0FDEC20EB
:050C4D00E003020D159B
:040C52007518487554
:030C5600191375FA
:060C59001A80E4F516F517
:0A0C5F0017F51B758232C002C003B6
:0C0C6900C004C005120A18D005D0048594
:030C7500122285C3
:030C780013238DB6
:0C0C7B00248C82C00512020DAE82D00550
:0B0C8700D003D002BE0018ED2512F5CE
:050C920012E43513F52A
:090C9700138D077800EF2514F518
:050CA00014E83515F514
:010CA5001539
:040CA60075185075F8
:030CAA00191375A6
:060CAD001A80E4F516F5C3
:0A0CB30017F51BF582C002C003C054
:0C0CBD0006120A18D00674302EF51C75C3
:030CC900181C757F
:060CCC001900751A4075C5
:060CD2001601E4F51775A0
:090CD8001B00758200120A187558
:030CE1001855752E
:030CE4001913756C
:070CE7001A80751601E4F507
:080CEE0017751B00758200124E
:0A0CF6000A18D003D002751800752B
:060D000019F0751A008ACB
:040D0600168B1775BC
:090D0A001B01758200120A180297
:020D130012EDDF
:040D15007518577581
:030D190019137536
:060D1C001A80E4F516F553
:0A0D220017F51B758232C002C003F2
:0E0D2C00C004C005120A18D005D004740324B8
:090D3A0000F522E434F0F5238DEC
:090D4300248C821202E8AC8275D6
:030D4C00185075C7
:030D4F0019137500
:060D52001A80E4F516F51D
:080D580017F51BF582C004121F
:0A0D60000A18D00474302CF51C753D
:030D6A00181C75DD
:060D6D001900751A407523
:060D73001601E4F51775FE
:090D79001B00758200120A1875B6
:030D82001855758C
:030D8500191375CA
:070D88001A80751601E4F565
:080D8F0017751B0075820012AC
:0A0D97000A18D003D0027518007589
:060DA10019F0751A008A2A
:040DA700168B17751B
:090DAB001B01758200120A1802F6
:020DB40012ED3E
:040DB60075186075D7
:030DBA0019137595
:060DBD001A80E4F516F5B2
:070DC30017F51B75823112C8
:040DCA000A18751876
:030DCE006D751927
:060DD10013751A80E4F521
:040DD70016F517F501
:070DDB001BF582120A1875D6
:030DE200188375FE
:030DE5001913756A
:060DE8001A80E4F516F587
:060DEE0017F51BF582124F
:040DF4000A1875184C
:030DF80055751915
:060DFB0013751A80E4F5F7
:040E010016F517F5D6
:070E05001BF582120A1875AB
:030E0C00188F75C7
:030E0F001913753F
:060E12001A80E4F516F55C
:080E180017751B017582001221
:050E20000A180212EDAA
:0E0E250090F001E0FC74022400FDE434F0FEC5
:0D0E3300EC2DFFE43EF8EC2FFFE438F88FC3
:080E40002288238D828E8312AB
:050E4800097D0212ED1E
:0E0E4D0090F001E0FC74022400FDE434F0FE9D
:0C0E5B00EC2DFFE43EF8EC2FF522E4380B
:0A0E6700F5238D828E831209C50267
:020E710012ED80
:090E730090F001E0FC8C1D7518E3
:030E7C009875194D
:060E7F0013751A80E4F572
:040E850016F517F552
:0C0E89001B758235C004120A18D004BC8E
:040E95003002801B8C
:060E9900BC31030210341D
:060E9F00BC32030211CA7F
:060EA500BC34030212122E
:060EAB00BC350302122910
:030EB100021279B1
:040EB4007518A07598
:030EB80019137596
:060EBB001A80E4F516F5B3
:060EC10017F51BF582127B
:060EC7000A1885801E756B
:030ECD0018A875ED
:030ED0001913757E
:060ED3001A80E4F516F59B
:060ED90017F51BF5821263
:040EDF000A18751860
:050EE3001E75190075E9
:070EE8001A40751601E4F544
:080EEF0017751B00758200124B
:040EF7000A18751848
:030EFB0055751911
:050EFE0013751A807558
:060F03001601E4F517756C
:0A0F09001B00758200120A18859083
:030F13001E751830
:030F1600AD75199D
:060F190013751A80E4F5D7
:040F1F0016F517F5B7
:070F23001BF582120A18758C
:030F2A00181E7519
:060F2D001900751A407561
:060F33001601E4F517753C
:090F39001B00758200120A1875F4
:030F4200185575CA
:030F450019137508
:070F48001A80751601E4F5A3
:080F4F0017751B0075820012EA
:060F57000A1885A01E75BA
:030F5D0018B27552
:030F6000191375ED
:060F63001A80E4F516F50A
:060F690017F51BF58212D2
:040F6F000A187518CF
:050F73001E7519007558
:070F78001A40751601E4F5B3
:080F7F0017751B0075820012BA
:040F87000A187518B7
:030F8B0055751980
:050F8E0013751A8075C7
:060F93001601E4F51775DC
:0A0F99001B00758200120A1885B0D3
:030FA3001E7518A0
:030FA600B7751903
:060FA90013751A80E4F547
:040FAF0016F517F527
:070FB3001BF582120A1875FC
:030FBA00181E7589
:060FBD001900751A4075D1
:060FC3001601E4F51775AC
:090FC9001B00758200120A187564
:030FD2001855753A
:030FD50019137578
:070FD8001A80751601E4F513
:080FDF0017751B00758200125A
:060FE7000A1885B11E7519
:030FED0018BC75B8
:030FF0001913755D
:060FF3001A80E4F516F57A
:060FF90017F51BF5821242
:040FFF000A1875183F
:051003001E75190075C7
:071008001A40751601E4F522
:08100F0017751B007582001229
:041017000A18751826
:03101B00557519EF
:05101E0013751A807536
:061023001601E4F517754B
:091029001B00758200120A180276
:02103200127931
:041034007518C175F5
:0310380019137514
:06103B001A80E4F516F531
:0610410017F51BF58212F9
:0E1047000A1890E60174C3F00075B20075B38C
:0C1055000075B40075B50075B60085800C
:031061001E7518E1
:03106400A8751953
:0610670013751A80E4F588
:04106D0016F517F568
:071071001BF582120A18753D
:03107800181E75CA
:06107B001900751A407512
:061081001601E4F51775ED
:091087001B00758200120A1875A5
:031090001855757B
:03109300191375B9
:071096001A80751601E4F554
:08109D0017751B00758200129B
:0610A5000A1885901E757B
:0310AB0018AD7508
:0310AE001913759E
:0610B1001A80E4F516F5BB
:0610B70017F51BF5821283
:0410BD000A18751880
:0510C1001E7519007509
:0710C6001A40751601E4F564
:0810CD0017751B00758200126B
:0410D5000A18751868
:0310D90055751931
:0510DC0013751A807578
:0610E1001601E4F517758D
:0A10E7001B00758200120A1885A094
:0310F1001E751851
:0310F400B27519B9
:0610F70013751A80E4F5F8
:0410FD0016F517F5D8
:071101001BF582120A1875AC
:03110800181E7539
:06110B001900751A407581
:061111001601E4F517755C
:091117001B00758200120A187514
:03112000185575EA
:0311230019137528
:071126001A80751601E4F5C3
:08112D0017751B00758200120A
:061135000A1885B01E75CA
:03113B0018B7756D
:03113E001913750D
:061141001A80E4F516F52A
:0611470017F51BF58212F2
:04114D000A187518EF
:051151001E7519007578
:071156001A40751601E4F5D3
:08115D0017751B0075820012DA
:041165000A187518D7
:03116900557519A0
:05116C0013751A8075E7
:061171001601E4F51775FC
:0A1177001B00758200120A1885B1F2
:031181001E7518C0
:03118400BC75191E
:0611870013751A80E4F567
:04118D0016F517F547
:071191001BF582120A18751C
:03119800181E75A9
:06119B001900751A4075F1
:0611A1001601E4F51775CC
:0911A7001B00758200120A187584
:0311B0001855755A
:0311B30019137598
:0711B6001A80751601E4F533
:0811BD0017751B00758200127A
:0511C5000A1802127976
:0411CA007518CD7552
:0311CE001913757D
:0611D1001A80E4F516F59A
:0611D70017F51BF5821262
:0E11DD000A1875B20075B30075B40075B50040
:0C11EB0075B60075A01075B4FF75A01A51
:0A11F700740255B1FC60F975A00AFE
:08120100E5B120E1FB75A01A24
:09120900740255B1FC706980F714
:041212007518D47502
:0312160019137534
:061219001A80E4F516F551
:06121F0017F51BF5821219
:041225000A188050D3
:041229007518DC75E3
:03122D001913751D
:061230001A80E4F516F53A
:0612360017F51BF5821202
:0E123C000A1890E60174C0F00075B20075B398
:0E124A000075B40075B50075B60075A011757D
:08125800B4DF75B3FF75A011AE
:0A126000740255B1FC60F975A0019D
:08126A00E5B120E1FB75A011C4
:07127200740255B1FC60F9A4
:041279007518E4758B
:03127D00191375CD
:061280001A80E4F516F5EA
:0612860017F51BF58212B2
:04128C000A187518AF
:051290001D7519007539
:071295001A40751601E4F593
:08129C0017751B00758200129A
:0412A4000A18751897
:0312A80055751960
:0512AB0013751A8075A7
:0612B0001601E4F51775BC
:0912B6001B00758200120A187574
:0312BF0018EB75B4
:0312C20019137588
:0612C5001A80E4F516F5A5
:0812CB0017751B01758200126A
:0412D3000A1880165F
:0712D7007518007519F07590
:0512DE001A008A168BC6
:0812E30017751B017582311221
:0212EB000A18DF
:0812ED000090E6497482F02232
:0312F500120AE2F8
:0512F800120BF780FB62
:081348004932435245414400C3
:051350007265743D0010
:02135500200076
:0913570049324357524954450044
:0D136000776861745F737472696E673A009C
:0E136D0053544D4333205452414345204658BB
:08137B003220534443432000DB
:0C138300536570203234203230313000CD
:09138F0031353A34313A343000B2
:08139800494F434F4E4620006F
:0813A000494E50555453200042
:0513A800494F413D002A
:0513AD00494F423D0024
:0513B200494F433D001E
:0513B700494F443D0018
:0513BC00494F453D0012
:0C13C1005245414420504F52545320002C
:0713CD006C336D207073000A
:0813D4006C336D2061732000F1
:0813DC006C336D206670700097
:0713E400636F6E66313D00EE
:0413EB00656E6400C7
:06133F00E478FFF6D8FD82
:031332007581259D
:0A133500120180E582600302132D0F
:0E12FD0020F71430F6148883A88220F507E647
:06130B00A8837583002297
:03131100E280F780
:03131400E493223D
:02131700E022D2
:00000001FF
